:100000000C9446000C9465000C9465000C946500FB
:100010000C9465000C9465000C9465000C946500CC
:100020000C9465000C9465000C9465000C946500BC
:100030000C9465000C94A7010C9465000C94650069
:100040000C9465000C9465000C9465000C9465009C
:100050000C9465000C9465000C9465000C9465008C
:100060000C9465000C9465000C9465000C9465007C
:100070000C9465000C9465000C9465000C9465006C
:100080000C9465000C9465000C94650011241FBE4F
:10009000CFEFD0E4DEBFCDBF11E0A0E0B1E0EAE5F4
:1000A000F7E000E00BBF02C007900D92A430B1074B
:1000B000D9F711E0A4E0B1E001C01D92AC30B10766
:1000C000E1F70E9478030C94AB030C940000CF93EB
:1000D000DF93CDB7DEB781E00E948C00DF91CF9136
:1000E0000895CF93DF93CDB7DEB784E690E00E940A
:1000F0002C0188E30E948C0086E00E948C008FE037
:100100000E948C0081E00E948C008AE090E00E94B6
:100110002C01DF91CF910895CF93DF931F92CDB73C
:10012000DEB789838BE290E02BE230E0F901208199
:100130002F7BFC01208388E290E02981FC01208351
:100140008BE290E02BE230E0F90120812068FC0195
:10015000208300008BE290E02BE230E0F901208167
:100160002F77FC01208382E090E00E942C010F9009
:10017000DF91CF910895CF93DF931F92CDB7DEB774
:1001800089838BE290E02BE230E0F901208120644A
:10019000FC01208388E290E02981FC0120838BE22E
:1001A00090E02BE230E0F90120812068FC012083FF
:1001B00000008BE290E02BE230E0F90120812F7704
:1001C000FC01208381E090E00E942C010F90DF91E0
:1001D000CF910895CF93DF9300D000D0CDB7DEB795
:1001E0008A837C836B830E9467008A81898311C024
:1001F000898191E0980F99830E9416018B819C81DF
:100200009C012F5F3F4F3C832B83FC0180810E9428
:10021000BB008B819C81FC018081882349F70F9072
:100220000F900F900F90DF91CF910895CF93DF93B0
:100230001F92CDB7DEB789838981813128F4898106
:1002400081580E948C0004C0898181550E948C00D5
:100250000F90DF91CF910895CF93DF9300D000D01E
:1002600000D0CDB7DEB79E838D831A82198214C069
:100270001C821B8206C000008B819C8101969C839E
:100280008B838B819C81873023E09207A4F3898143
:100290009A8101969A83898329813A818D819E81F1
:1002A000281739072CF326960FB6F894DEBF0FBE39
:1002B000CDBFDF91CF910895CF93DF93CDB7DEB758
:1002C00081E890E02BE0FC01208388E890E02DE7B6
:1002D00030E0FC01318320838FE690E022E0FC01D6
:1002E000208384E890E0FC0111821082809100015B
:1002F00090910101A0910201B09103018093050149
:1003000090930601A0930701B09308018FE590E058
:100310002FE530E0F90120812068FC012083DF9186
:10032000CF910895CF93DF93CDB7DEB781E890E00A
:10033000FC011082DF91CF910895CF93DF93CDB769
:10034000DEB781E080930401DF91CF9108951F9281
:100350000F9200905F000F92112400905B000F92AB
:100360002F933F934F935F936F937F938F939F93BD
:10037000AF93BF93EF93FF93CF93DF93CDB7DEB7E8
:100380008091050190910601A0910701B0910801AB
:100390000197A109B1098093050190930601A093EB
:1003A0000701B09308018091050190910601A09189
:1003B0000701B09108010097A105B10591F40E94D1
:1003C0009D018091000190910101A0910201B091E5
:1003D00003018093050190930601A0930701B09358
:1003E0000801DF91CF91FF91EF91BF91AF919F9164
:1003F0008F917F916F915F914F913F912F910F90CE
:1004000000925B000F9000925F000F901F90189574
:10041000CF93DF9300D000D0CDB7DEB769837A8366
:100420008B839C8389819A81AB81BC8180930001FD
:1004300090930101A0930201B09303018091000108
:1004400090910101A0910201B091030180930501F7
:1004500090930601A0930701B09308010F900F90AD
:100460000F900F90DF91CF910895CF93DF93CDB789
:10047000DEB780910A0190910B018230910509F459
:1004800066C08330910530F4009789F08130910582
:10049000D9F0DBC08430910509F467C08430910540
:1004A00008F45CC08530910509F4B5C0CEC081E088
:1004B0000E94160180E30E94BB0081E090E09093CF
:1004C0000B0180930A01C1C080E290E0FC018081B1
:1004D000882F90E0809590958370992781309105C1
:1004E00039F482E090E090930B0180930A01ADC053
:1004F00080E290E0FC018081882F90E080959095CB
:10050000837099278230910539F483E090E09093CD
:100510000B0180930A0199C080E290E0FC01808188
:10052000882F90E08095909583709927833091056E
:1005300039F485E090E090930B0180930A0185C027
:1005400081E090E090930B0180930A017EC084E0EB
:1005500090E090930B0180930A0177C084E090E0D3
:1005600090930B0180930A0170C080E290E0FC013F
:100570008081882F90E080959095837099278130B5
:10058000910539F482E090E090930B0180930A0189
:100590005CC080E290E0FC018081882F90E0809533
:1005A0009095837099278230910539F483E090E02B
:1005B00090930B0180930A0148C080E290E0FC0117
:1005C0008081882F90E08095909583709927833063
:1005D000910539F485E090E090930B0180930A0136
:1005E00034C080E290E0FC018081882F90E080950B
:1005F000909583709927009739F481E090E090936B
:100600000B0180930A0121C084E090E090930B01DC
:1006100080930A011AC080E290E0FC018081882F5B
:1006200090E08095909583709927009739F481E048
:1006300090E090930B0180930A0107C085E090E061
:1006400090930B0180930A01000080910A01909120
:100650000B018230910579F08330910508F442C096
:100660008430910509F440C084309105D0F0853084
:10067000910561F13AC080910901893020F089E04B
:100680008093090105C0809109018F5F8093090162
:1006900081E00E94160180910901805D0E94BB00EB
:1006A00024C080910901882319F41092090105C022
:1006B0008091090181508093090181E00E94160117
:1006C00080910901805D0E94BB000FC0109209015A
:1006D00081E00E94160180910901805D0E94BB00AB
:1006E000000003C0000001C00000DF91CF91089519
:1006F000CF93DF93CDB7DEB781E290E0FC011082AB
:1007000087E290E02FEFFC0120838AE290E02FEF58
:10071000FC01208382E290E02FEFFC01208388E23D
:1007200090E0FC0110828BE290E0FC0110820E94BC
:1007300071006CE370E080E090E00E9408020E948B
:100740005C010E9435020000809104018823E1F3DE
:0A07500010920401F6CFF894FFCFD9
:04075A00010000009A
:00000001FF
